:020000040800F2
:1000000000000120F1980008BD930008BF9300088C
:10001000C1930008C3930008C593000800000000C6
:10002000000000000000000000000000C79300086E
:10003000C993000800000000CB930008CD9300088E
:100040003599000835990008359900083599000858
:100050003599000835990008359900083599000848
:100060003599000835990008359900084994000829
:100070003599000835990008359900083599000828
:100080003599000835990008359900083599000818
:100090003599000835990008359900083599000808
:1000A00035990008359900083599000835990008F8
:1000B00035990008359900083599000835990008E8
:1000C00035990008359900083599000835990008D8
:1000D00035990008359900083599000835990008C8
:1000E000359900083599000835990008000000008E
:1000F0000000000000000000000000000000000000
:100100000000000000000000359900083599000843
:10011000599400086994000879940008A59400088F
:100120003599000835990008359900083599000877
:100130003599000800000000000000003599000813
:100140003599000835990008359900083599000857
:10015000000000000000000000000000000000009F
:10016000000000000000000000000000000000008F
:10017000000000000000000000000000000000007F
:10018000000000000000000000000000000000006F
:10019000000000000000000000000000000000005F
:1001A000000000000000000000000000000000004F
:1001B000000000000000000000000000000000003F
:1001C000000000000000000000000000000000002F
:1001D000000000000000000000000000000000001F
:0401E0005FF8E0F1F3
:1001E80010B5054C237833B9044B13B10448AFF369
:1001F80000800123237010BD380300200000000098
:1002080010DA000808B5034B1BB103490348AFF3E4
:10021800008008BD000000003C03002010DA000840
:1002280081F0004102E000BF83F0004330B54FEA9F
:1002380041044FEA430594EA050F08BF90EA020F0C
:100248001FBF54EA000C55EA020C7FEA645C7FEA9F
:10025800655C00F0E2804FEA5454D4EB5555B8BFC2
:100268006D420CDD2C4480EA020281EA030382EA33
:10027800000083EA010180EA020281EA0303362DC5
:1002880088BF30BD11F0004F4FEA01314FF4801C98
:100298004CEA113102D0404261EB410113F0004FAA
:1002A8004FEA03334CEA133302D0524263EB430361
:1002B80094EA050F00F0A780A4F10104D5F1200EFF
:1002C8000DDB02FA0EFC22FA05F2801841F100015A
:1002D80003FA0EF2801843FA05F359410EE0A5F12E
:1002E80020050EF1200E012A03FA0EFC28BF4CF05F
:1002F800020C43FA05F3C01851EBE37101F0004515
:1003080007D54FF0000EDCF1000C7EEB00006EEB21
:100318000101B1F5801F1BD3B1F5001F0CD34908AB
:100328005FEA30004FEA3C0C04F101044FEA445202
:1003380012F5800F80F09A80BCF1004F08BF5FEA89
:10034800500C50F1000041EB045141EA050130BD69
:100358005FEA4C0C404141EB010111F4801FA4F10C
:100368000104E9D191F0000F04BF01460020B1FA61
:1003780081F308BF2033A3F10B03B3F120020CDA99
:100388000C3208DD02F1140CC2F10C0201FA0CF077
:1003980021FA02F10CE002F11402D8BFC2F1200CDC
:1003A80001FA02F120FA0CFCDCBF41EA0C01904092
:1003B800E41AA2BF01EB0451294330BD6FEA0404DB
:1003C8001F3C1CDA0C340EDC04F11404C4F12002C6
:1003D80020FA04F001FA02F340EA030021FA04F3D8
:1003E80045EA030130BDC4F10C04C4F1200220FA2F
:1003F80002F001FA04F340EA0300294630BD21FA6D
:1004080004F0294630BD94F0000F83F4801306BF32
:1004180081F480110134013D4EE77FEA645C18BF26
:100428007FEA655C29D094EA050F08BF90EA020FBD
:1004380005D054EA000C04BF1946104630BD91EAB5
:10044800030F1EBF0021002030BD5FEA545C05D1B8
:100458004000494128BF41F0004130BD14F58004F7
:100468003CBF01F5801130BD01F0004545F0FE416B
:1004780041F470014FF0000030BD7FEA645C1ABFA0
:10048800194610467FEA655C1CBF0B46024650EAD7
:10049800013406BF52EA033591EA030F41F4002103
:1004A80030BD00BF90F0000F04BF0021704730B589
:1004B8004FF4806404F132044FF000054FF000015E
:1004C80050E700BF90F0000F04BF0021704730B51F
:1004D8004FF4806404F1320410F0004548BF4042F4
:1004E8004FF000013EE700BF42004FEAE2014FEA49
:1004F80031014FEA02701FBF12F07F4393F07F4F24
:1005080081F06051704732F07F4208BF704793F026
:100518007F4F04BF41F40021704730B54FF4607439
:1005280001F0004521F000411CE700BF50EA01023C
:1005380008BF704730B54FF000050AE050EA0102E5
:1005480008BF704730B511F0004502D5404261EB55
:1005580041014FF4806404F132045FEA915C3FF496
:10056800D8AE4FF003025FEADC0C18BF03325FEA33
:10057800DC0C18BF033202EBDC02C2F1200300FAE4
:1005880003FC20FA02F001FA03FE40EA0E0021FA09
:1005980002F11444BDE600BF70B54FF0FF0C4CF4F7
:1005A800E06C1CEA11541DBF1CEA135594EA0C0FA9
:1005B80095EA0C0F00F0DEF82C4481EA030621EAE4
:1005C8004C5123EA4C5350EA013518BF52EA03351F
:1005D80041F4801143F4801338D0A0FB02CE4FF0D1
:1005E8000005E1FB02E506F00042E0FB03E54FF001
:1005F8000006E1FB03569CF0000F18BF4EF0010EF9
:10060800A4F1FF04B6F5007F64F5407404D25FEAF4
:100618004E0E6D4146EB060642EAC62141EA5551A7
:100628004FEAC52040EA5E504FEACE2EB4F1FD0CE9
:1006380088BFBCF5E06F1ED8BEF1004F08BF5FEA67
:10064800500E50F1000041EB045170BD06F0004619
:1006580046EA010140EA020081EA0301B4EB5C04C6
:10066800C2BFD4EB0C0541EA045170BD41F48011BE
:100678004FF0000E013C00F3AB8014F1360FDEBFE3
:10068800002001F0004170BDC4F10004203C35DABF
:100698000C341BDC04F11404C4F1200500FA05F342
:1006A80020FA04F001FA05F240EA020001F00042E3
:1006B80021F0004110EBD37021FA04F642EB060159
:1006C8005EEA430E08BF20EAD37070BDC4F10C0483
:1006D800C4F1200500FA04F320FA05F001FA04F247
:1006E80040EA020001F0004110EBD37041F1000133
:1006F8005EEA430E08BF20EAD37070BDC4F120053E
:1007080000FA05F24EEA020E20FA04F301FA05F2A5
:1007180043EA020321FA04F001F0004121FA04F24D
:1007280020EA020000EBD3705EEA430E08BF20EA1D
:10073800D37070BD94F0000F0FD101F00046400057
:1007480041EB010111F4801F08BF013CF7D041EAD9
:10075800060195F0000F18BF704703F000465200DD
:1007680043EB030313F4801F08BF013DF7D043EAAE
:100778000603704794EA0C0F0CEA135518BF95EA64
:100788000C0F0CD050EA410618BF52EA4306D1D1EB
:1007980081EA030101F000414FF0000070BD50EA0A
:1007A800410606BF1046194652EA430619D094EA94
:1007B8000C0F02D150EA013613D195EA0C0F05D17E
:1007C80052EA03361CBF104619460AD181EA0301D2
:1007D80001F0004141F0FE4141F470014FF000008A
:1007E80070BD41F0FE4141F4780170BD70B54FF025
:1007F800FF0C4CF4E06C1CEA11541DBF1CEA1355A5
:1008080094EA0C0F95EA0C0F00F0A7F8A4EB050486
:1008180081EA030E52EA03354FEA013100F088807D
:100828004FEA03334FF0805545EA131343EA126346
:100838004FEA022245EA111545EA10654FEA0026FB
:100848000EF000419D4208BF964244F1FD0404F5B4
:10085800407402D25B084FEA3202B61A65EB030510
:100868005B084FEA32024FF480104FF4002CB6EBCD
:10087800020E75EB030E22BFB61A754640EA0C004D
:100888005B084FEA3202B6EB020E75EB030E22BF8D
:10089800B61A754640EA5C005B084FEA3202B6EBCE
:1008A800020E75EB030E22BFB61A754640EA9C008D
:1008B8005B084FEA3202B6EB020E75EB030E22BF5D
:1008C800B61A754640EADC0055EA060E18D04FEA1B
:1008D800051545EA16754FEA06164FEAC30343EABB
:1008E80052734FEAC2025FEA1C1CC0D111F4801F88
:1008F8000BD141EA00014FF000004FF0004CB6E781
:1009080011F4801F04BF01430020B4F1FD0C88BF1F
:10091800BCF5E06F3FF6AFAEB5EB030C04BFB6EB2A
:10092800020C5FEA500C50F1000041EB045170BD1D
:100938000EF0004E4EEA113114EB5C04C2BFD4EB4A
:100948000C0541EA045170BD41F480114FF0000ECE
:10095800013C90E645EA060E8DE60CEA135594EA4A
:100968000C0F08BF95EA0C0F3FF43BAF94EA0C0F4D
:100978000AD150EA01347FF434AF95EA0C0F7FF4C2
:1009880025AF104619462CE795EA0C0F06D152EA16
:1009980003353FF4FDAE1046194622E750EA4106FA
:1009A80018BF52EA43067FF4C5AE50EA41047FF40B
:1009B8000DAF52EA43057FF4EBAE12E74FF0FF3C70
:1009C80006E000BF4FF0010C02E000BF4FF0010C41
:1009D8004DF804CD4FEA410C7FEA6C5C4FEA430CBA
:1009E80018BF7FEA6C5C1BD001B050EA410C0CBF09
:1009F80052EA430C91EA030F02BF90EA020F00206B
:100A0800704710F1000F91EA030F58BF994208BFD1
:100A180090422CBFD8176FEAE37040F0010070478E
:100A28004FEA410C7FEA6C5C02D150EA013C07D1E5
:100A38004FEA430C7FEA6C5CD6D152EA033CD3D030
:100A48005DF8040B704700BF8446104662468C462A
:100A58001946634600E000BF01B5FFF7B7FF00285D
:100A680048BF10F1000F01BD4DF808EDFFF7F4FF86
:100A78000CBF012000205DF808FB00BF4DF808ED11
:100A8800FFF7EAFF34BF012000205DF808FB00BF34
:100A98004DF808EDFFF7E0FF94BF012000205DF856
:100AA80008FB00BF4DF808EDFFF7CEFF94BF01200B
:100AB80000205DF808FB00BF4DF808EDFFF7C4FF04
:100AC80034BF012000205DF808FB00BF4FEA410C4D
:100AD8007FEA6C5C02D150EA013C0AD14FEA430C30
:100AE8007FEA6C5C02D152EA033C02D14FF000006D
:100AF80070474FF0010070474A0011D212F50012FA
:100B080011D20DD56FF47873B3EB62520ED44FEA5D
:100B1800C12343F0004343EA505323FA02F07047DD
:100B28004FF00000704750EA013002D14FF0FF301B
:100B380070474FF0000070474FEA4102B2F1E043BE
:100B480024BFB3F5001CDCF1FE5C0DD901F0004CAC
:100B58004FEAC0024CEA5070B2F1004F40EB8300FC
:100B680008BF20F00100704711F0804F21D113F128
:100B78003872BCBF01F00040704741F480114FEA61
:100B88005252C2F11802C2F1200C10FA0CF320FAEA
:100B980002F018BF40F001004FEAC1234FEAD32307
:100BA80003FA0CFC40EA0C0023FA02F34FEA430371
:100BB800CCE77FEA625307D150EA01331EBF4FF0FA
:100BC800FE4040F44000704701F0004040F0FE4015
:100BD80040F40000704700BF80F0004002E000BF12
:100BE80081F0004142001FBF5FEA410392EA030F10
:100BF8007FEA226C7FEA236C6AD04FEA1262D2EB5A
:100C08001363C1BFD218414048404140B8BF5B425E
:100C1800192B88BF704710F0004F40F4000020F0F7
:100C28007F4018BF404211F0004F41F4000121F00D
:100C38007F4118BF494292EA030F3FD0A2F1010257
:100C480041FA03FC10EB0C00C3F1200301FA03F195
:100C580000F0004302D5494260EB4000B0F5000FB8
:100C680013D3B0F1807F06D340084FEA310102F177
:100C78000102FE2A51D2B1F1004F40EBC25008BF29
:100C880020F0010040EA03007047490040EB0000F3
:100C980010F4000FA2F10102EDD1B0FA80FCACF122
:100CA800080CB2EB0C0200FA0CF0AABF00EBC25021
:100CB80052421843BCBFD0401843704792F0000F0F
:100CC80081F4000106BF80F400000132013BB5E762
:100CD8004FEA41037FEA226C18BF7FEA236C21D0D8
:100CE80092EA030F04D092F0000F08BF084670473D
:100CF80090EA010F1CBF0020704712F07F4F04D10B
:100D0800400028BF40F00040704712F100723CBF1D
:100D180000F50000704700F0004343F0FE4040F447
:100D2800000070477FEA226216BF08467FEA236305
:100D38000146420206BF5FEA412390EA010F40F4F0
:100D4800800070474FF0000304E000BF10F000433C
:100D580048BF40425FEA000C08BF704743F0964323
:100D680001464FF000001CE050EA010208BF70473E
:100D78004FF000030AE000BF50EA010208BF7047C5
:100D880011F0004302D5404261EB41015FEA010CDA
:100D980002BF84460146002043F0B64308BFA3F1D2
:100DA8008053A3F50003BCFA8CF2083AA3EBC253B4
:100DB80010DB01FA02FC634400FA02FCC2F12002D3
:100DC800BCF1004F20FA02F243EB020008BF20F00A
:100DD8000100704702F1200201FA02FCC2F1200270
:100DE80050EA4C0021FA02F243EB020008BF20EA65
:100DF800DC7070474FF0FF0C1CEAD0521EBF1CEA93
:100E0800D15392EA0C0F93EA0C0F6FD01A4480EA80
:100E1800010C400218BF5FEA41211ED04FF0006369
:100E280043EA501043EA5111A0FB01310CF0004095
:100E3800B1F5000F3EBF490041EAD3715B0040EABB
:100E4800010062F17F02FD2A1DD8B3F1004F40EB8B
:100E5800C25008BF20F00100704790F0000F0CF05E
:100E6800004C08BF49024CEA502040EA51207F3A22
:100E7800C2BFD2F1FF0340EAC250704740F40000FD
:100E88004FF00003013A5DDC12F1190FDCBF00F0EE
:100E980000407047C2F10002410021FA02F1C2F19C
:100EA800200200FA02FC5FEA310040F1000053EA38
:100EB8004C0308BF20EADC70704792F0000F00F086
:100EC800004C02BF400010F4000F013AF9D040EA8C
:100ED8000C0093F0000F01F0004C02BF490011F420
:100EE800000F013BF9D041EA0C018FE70CEAD1531E
:100EF80092EA0C0F18BF93EA0C0F0AD030F0004C9E
:100F080018BF31F0004CD8D180EA010000F0004051
:100F1800704790F0000F17BF90F0004F084691F00F
:100F2800000F91F0004F14D092EA0C0F01D1420249
:100F38000FD193EA0C0F03D14B0218BF084608D112
:100F480080EA010000F0004040F0FE4040F400005C
:100F5800704740F0FE4040F4400070474FF0FF0CEF
:100F68001CEAD0521EBF1CEAD15392EA0C0F93EA36
:100F78000C0F69D0A2EB030280EA010C49024FEA88
:100F8800402037D04FF0805343EA111143EA101341
:100F98000CF000408B4238BF5B0042F17D024FF4F9
:100FA800000C8B4224BF5B1A40EA0C00B3EB510FD4
:100FB80024BFA3EB510340EA5C00B3EB910F24BFBD
:100FC800A3EB910340EA9C00B3EBD10F24BFA3EB42
:100FD800D10340EADC001B0118BF5FEA1C1CE0D10A
:100FE800FD2A3FF650AF8B4240EBC25008BF20F0BD
:100FF800010070470CF0004C4CEA50207F32C2BF11
:10100800D2F1FF0340EAC250704740F400004FF0AD
:101018000003013A37E792F0000F00F0004C02BFDE
:10102800400010F4000F013AF9D040EA0C0093F0A8
:10103800000F01F0004C02BF490011F4000F013B02
:10104800F9D041EA0C0195E70CEAD15392EA0C0F6A
:1010580008D142027FF47DAF93EA0C0F7FF470AFA2
:10106800084676E793EA0C0F04D14B023FF44CAFE5
:1010780008466EE730F0004C18BF31F0004CCAD17A
:1010880030F000427FF45CAF31F000437FF43CAFB6
:101098005FE700BF4FF0FF3C06E000BF4FF0010CD8
:1010A80002E000BF4FF0010C4DF804CD4FEA4002BA
:1010B8004FEA41037FEA226C18BF7FEA236C11D004
:1010C80001B052EA530C18BF90EA010F58BFB2EBB7
:1010D800030088BFC81738BF6FEAE17018BF40F037
:1010E800010070477FEA226C02D15FEA402C05D1EB
:1010F8007FEA236CE4D15FEA412CE1D05DF8040B70
:10110800704700BF844608466146FFE70FB5FFF702
:10111800C9FF002848BF10F1000F0FBD4DF808EDBA
:10112800FFF7F4FF0CBF012000205DF808FB00BFAB
:101138004DF808EDFFF7EAFF34BF012000205DF805
:1011480008FB00BF4DF808EDFFF7E0FF94BF012052
:1011580000205DF808FB00BF4DF808EDFFF7D2FF4F
:1011680094BF012000205DF808FB00BF4DF808ED92
:10117800FFF7C8FF34BF012000205DF808FB00BF5F
:101188004FEA40024FEA41037FEA226C02D15FEA4C
:10119800402C08D17FEA236C02D15FEA412C02D1AE
:1011A8004FF0000070474FF0010070474FEA4002CF
:1011B800B2F1FE4F0FD34FF09E03B3EB12620DD97D
:1011C8004FEA002343F0004310F0004F23FA02F0E7
:1011D80018BF404270474FF00000704712F1610F8E
:1011E80001D1420205D110F0004008BF6FF0004065
:1011F80070474FF00000704742000ED2B2F1FE4F28
:101208000BD34FF09E03B3EB126209D44FEA0023CD
:1012180043F0004323FA02F070474FF00000704794
:1012280012F1610F01D1420202D14FF0FF30704735
:101238004FF00000704700BF7BB972B90029BEBFEC
:1012480000204FF0004106E008BF00281CBF6FF0E7
:1012580000414FF0FF3000F0BFB9ADF1080C6DE967
:1012680004CE002909DB002B1ADB00F04DF8DDF86D
:1012780004E0DDE9022304B07047404261EB41011C
:10128800002B1BDB00F040F8DDF804E0DDE9022369
:1012980004B0404261EB4101524263EB43037047A3
:1012A800524263EB430300F02FF8DDF804E0DDE978
:1012B800022304B0404261EB41017047524263EBA4
:1012C800430300F021F8DDF804E0DDE9022304B06F
:1012D800524263EB4303704753B94AB9002908BF28
:1012E80000281CBF4FF0FF314FF0FF3000F074B9F9
:1012F800ADF1080C6DE904CE00F006F8DDF804E065
:10130800DDE9022304B070472DE9F0478C46044616
:10131800089E002B4BD18A42154667D9B2FA82F251
:101328004AB1C2F1200701FA02F320FA07F7954003
:1013380047EA030C94404FEA154EBCFBFEF71FFA30
:1013480085F80EFB17C307FB08F9210C41EA034394
:10135800994509D9EB1807F1FF3180F01C819945AF
:1013680040F21981023F2B44A3EB0903B3FBFEF0C3
:101378000EFB103300FB08F1A4B244EA0344A14277
:1013880009D92C1900F1FF3380F00781A14240F2FE
:10139800048102382C4440EA07400027641A1EB131
:1013A8000023D440C6E900433946BDE8F0878B42A4
:1013B80009D9002E00F0EC800027C6E90001384664
:1013C8003946BDE8F087B3FA83F7002F48D18B423E
:1013D80002D3824200F2FB80841A61EB03030120EE
:1013E8009C46002EE0D0C6E9004CDDE702B9FFDEDE
:1013F800B2FA82F2002A40F08F800127491B4FEA97
:1014080015481FFA85F9B1FBF8FE08FB1E1109FB08
:101418000EF04FEA144C4CEA0143984207D9EB18F6
:101428000EF1FF3102D2984200F2CD808E461B1A8F
:10143800B3FBF8F008FB103309FB00F9A4B244EA47
:101448000344A14507D92C1900F1FF3302D2A14565
:1014580000F2B6801846A4EB090440EA0E409EE765
:10146800C7F12005BB4022FA05FC4CEA030C21FA1F
:1014780005F44FEA1C4EB4FBFEF91FFA8CF80EFB7C
:10148800194420FA05F3B94009FB08FA19430B0C73
:1014980043EA0444A24502FA07F200FA07F30BD91B
:1014A8001CEB040409F1FF3080F08880A24540F26B
:1014B8008580A9F102096444A4EB0A04B4FBFEF098
:1014C8000EFB104400FB08FA89B241EA0444A24525
:1014D80008D91CEB040400F1FF316BD2A24569D98D
:1014E8000238644440EA0940A0FB0289A4EB0A04DC
:1014F8004C454146CE4654D351D0002E69D05A1A95
:1015080064EB0E0404FA05F522FA07F3FC401D43C8
:10151800C6E90054002747E79540C2F1200321FAA5
:1015280003F04FEA1548B0FBF8F71FFA85F908FBF6
:10153800170024FA03F3914007FB09FC0B43190C2D
:1015480041EA00418C4504FA02F407D9691807F109
:10155800FF3031D28C452FD9023F2944A1EB0C0131
:10156800B1FBF8F008FB101C00FB09FE99B241EA38
:101578000C418E4507D9691800F1FF3318D28E4502
:1015880016D902382944A1EB0E0140EA07473AE789
:101598003746304608E70F46E6E61846FBE6434579
:1015A800ABD2B8EB020169EB0C0201389646A4E70E
:1015B8001846E8E7084695E70746CFE781467BE700
:1015C80002382C4447E7AEF1020E2B442FE7384689
:1015D80007E73746E8E600BF704700BF034613F841
:1015E800012B002AFBD1181A0138704710F8012B7B
:1015F80011F8013B012A28BF9A42F7D0D01A704748
:1016080010B504460E4B18784FF47A73B3FBF0F319
:101618000C4A1068B0FBF3F000F02EFB68B90F2CF1
:1016280001D901200AE0002221464FF0FF3000F0E6
:10163800E3FA034B5C60002000E0012010BD00BF0E
:1016480000000020FC00002008B5074A136843F09A
:1016580010031360032000F0BDFA0020FFF7D0FF4D
:1016680007F086FE002008BD00200240034A1168EA
:10167800034B1B780B441360704700BFFC19002014
:1016880000000020014B1868704700BFFC190020BB
:1016980038B50446FFF7F6FF0546B4F1FF3F02D020
:1016A800044B1B781C44FFF7EDFF401BA042FAD304
:1016B80038BD00BF0000002008B5436A9A6A12F0DE
:1016C800500F03D01B6A1B6B984708BD9A6A42F4F7
:1016D80000729A621A68926802F46022B2F5602F6A
:1016E80003D0184607F0F0FEEFE7DA68002AF8D1D1
:1016F8009A6A22F480729A629A6A12F4805FF0D130
:101708009A6A42F001029A62EBE7704708B5406AAC
:10171800FFF7FBFF08BD704708B5406A836A43F0CE
:1017280040038362C36A43F00403C362FFF7F3FF15
:1017380008BD000030B482B00023019390F8243033
:10174800012B00F08B800246012380F824304B687F
:10175800062B29D80568686B03EB8303053B1F2418
:101768009C4020EA04000C6804FA03F303436B630B
:101778000B68092B38D91568E86803EB43031E3B4F
:1017880007249C4020EA04008C6804FA03F303430E
:10179800EB600B68103B012B34D90020002382F842
:1017A800243002B030BC70470C2B0ED80568286B6B
:1017B80003EB8303233B1F249C4020EA04000C68AE
:1017C80004FA03F303432B63D2E70568E86A03EBE3
:1017D8008303413B1F249C4020EA04000C6804FA60
:1017E80003F30343EB62C3E71568286903EB43037C
:1017F80007249C4020EA04008C6804FA03F303439E
:101808002B61C6E713681648834205D0936A43F0F4
:10181800200393620120C1E7986810F4000F1BD1E0
:10182800986840F4000098600B68102B01D00020E5
:10183800B4E70C4B1B680C49A1FB03139B0C03EB8F
:1018480083035900019102E0019B013B0193019B35
:10185800002BF9D10020A1E700209FE70220A0E794
:1018680000240140FC00002083DE1B4330B583B018
:101878000023019303689A6812F0010F2ED19A6829
:1018880042F001029A60174B1B68174AA2FB032318
:101898009B0C019302E0019B013B0193019B002BF0
:1018A800F9D10446FFF7EEFE054623689B6813F05E
:1018B800010F11D1FFF7E6FE401B0228F5D9A36AF4
:1018C80043F01003A362E36A43F00103E3620023D9
:1018D80084F82430012002E0002000E0002003B05A
:1018E80030BD00BFFC00002083DE1B43F8B5046850
:1018F800454DAC425BD0454B9C4258D090F82440B3
:10190800012C7ED016460D460446012380F824306B
:10191800FFF7ACFF074600286ED1A36A23F4706373
:1019280023F0010343F48073A3622268374B9A4281
:1019380044D0A36A23F48013A362536813F4806F1E
:1019480005D0A36A23F4405343F48053A362A36AE7
:1019580013F4805F48D0E36A23F00603E3620023B0
:1019680084F82430236A2A4A9A62236A294ADA6266
:10197800236A294A1A6323686FF002021A602268F0
:10198800936843F480739360216833462A464C3148
:10199800206A00F019FA2268936803F46023B3F50B
:1019A800602F24D0936843F48013936027E0164B8C
:1019B8005B6813F4702FA1D0012720E0A3F58063A2
:1019C8005B6813F4702FB4D0A36A43F48013A36246
:1019D8000D4B5B6813F4806FB9D0A36A23F44053AE
:1019E80043F48053A362B2E70023E362B7E7936846
:1019F80043F4A003936002E0002384F824303846BF
:101A0800F8BD0227FBE700BF002401400028014081
:101A1800C1160008151700082117000838B5036813
:101A28009A6812F0010F01D1002038BD04469A6867
:101A380022F001029A60FFF725FE054623689B689D
:101A480013F0010F0ED0FFF71DFE401B0228F5D939
:101A5800A36A43F01003A362E36A43F00103E3625D
:101A68000120E2E70020E0E700287FD038B50446EF
:101A7800836A002B33D02046FFF7D0FFA36A13F008
:101A880010036DD100286BD1A26A22F4885222F08B
:101A9800020242F00202A2626268E1690A43E56852
:101AA80042EA4502A168B1F5807F21D001291CD006
:101AB800616901291FD02568696821F469410B43D0
:101AC8006B6021688D682A4B2B4013438B60A36899
:101AD800B3F5807F20D0012B1ED000211FE0C36208
:101AE80080F8243007F0E0F9C5E74FF48073DFE7AA
:101AF8004FF48073DCE735B9A169013943EA413312
:101B080043F40063D7E7A16A41F02001A162E16ACA
:101B180041F00101E162CEE72369013B190525681F
:101B2800EB6A23F470030B43EB6223689968114B4B
:101B38000B409A420BD0A36A23F0120343F0100320
:101B4800A362E36A43F00103E36201200DE000238E
:101B5800E362A36A23F0030343F00103A36204E0F2
:101B6800A36A43F01003A362012038BD0120704727
:101B7800FDF7E1FFFE0E1FFF90F82430012B25D062
:101B880010B50446012380F82430FFF747FF0346C9
:101B980020B1002284F82420184610BD22689368DA
:101BA80023F480739360206A00F048F9034640B933
:101BB800A26A22F4885222F0010242F00102A262D3
:101BC800E7E7A26A42F04002A262E2E7022318466F
:101BD80070470000074AD36823F4E0631B041B0C1A
:101BE800000200F4E060184340F0BF6040F40030A9
:101BF800D060704700ED00E030B4174BDB68C3F3EA
:101C08000223C3F10704042C28BF04241D1D062D3C
:101C180018D9033B4FF0FF3505FA04F421EA040113
:101C2800994005FA03F322EA0303194300280BDB62
:101C38000901C9B200F1604000F5614080F8001365
:101C480030BC70470023E5E700F00F000901C9B276
:101C5800024B1954F4E700BF00ED00E014ED00E07A
:101C680000F01F02400901239340024A42F8203045
:101C7800704700BF00E100E00138B0F1807F0AD270
:101C8800064B5860064AF02182F82310002098601D
:101C980007221A6070470120704700BF10E000E07B
:101CA80000ED00E058B110B5044643791BB101239B
:101CB8006371002010BD037107F076F9F7E7012082
:101CC80070470379012B1AD030B401230371022322
:101CD80043710468A36843F00103A360002304E090
:101CE800046851F82350256001339342F8D3012347
:101CF8004371002303710368186830BC70470220E1
:101D0800704770B4066CC56B0124B4406C600468FD
:101D180063604368102B05D0036899600368DA6034
:101D280070BC704703689A600368D960F8E70000E0
:101D380000283BD010B4034601681D4A91422AD8B6
:101D48001C4A0A441C49A1FB0212120992000264AF
:101D58001A4AC263022283F821201868016821F414
:101D68007F5121F030015A689C682243DC68224385
:101D78001C6922435C6922439C692243DC69224333
:101D88000A43026000209863012283F8212083F827
:101D9800200010BC70470A4A0A440749A1FB0212F6
:101DA800120992000264074AC263D3E70120704710
:101DB80007040240F8FFFDBFCDCCCCCC00000240A8
:101DC800F8FBFDBF0004024038B590F82040012C14
:101DD80032D0012480F8204090F82140012C04D012
:101DE800002380F82030022038BD0446022084F801
:101DF80021000020A0632568286820F001002860E1
:101E08002046FFF77EFFE36A5BB12268136843F060
:101E18000E0313602268136843F001031360002067
:101E2800E2E72268136823F004031360226813684A
:101E380043F00A031360EDE70220D5E70346016883
:101E48000A6822F00E020A6001680A6822F001029C
:101E58000A60026CC06B012101FA02F2426083F849
:101E68002110002083F820007047000008B590F882
:101E78002130022B03D004238363012008BD0268AC
:101E8800136823F00E0313600268136823F001033C
:101E9800136003684B4A93424ED9783A934224D050
:101EA8001432934230D0143293422FD014329342DA
:101EB8002FD0143293422FD0143293422FD01432A1
:101EC80093422FD002F5627293422ED0143293427D
:101ED8002DD0143293422CD01432934202D04FF4B6
:101EE800803203E04FF4805200E00122364B5A6002
:101EF800012380F82130002380F82030436B002B29
:101F08005ED098470020B9E71022EFE74FF48072BF
:101F1800ECE74FF48052E9E74FF48032E6E74FF4FC
:101F28008012E3E74FF08072E0E70122DEE710223B
:101F3800DCE74FF48072D9E7244A934224D0143264
:101F4800934225D01432934224D01432934224D0A1
:101F58001432934224D01432934224D01432934240
:101F680024D002F56272934223D01432934222D0D5
:101F78001432934221D01432934202D04FF480326B
:101F880003E04FF4805200E00122114B5A60AFE7A2
:101F98001022FAE74FF48072F7E74FF48052F4E723
:101FA8004FF48032F1E74FF48012EEE74FF0807281
:101FB800EBE70122E9E71022E7E74FF48072E4E754
:101FC80000205BE780000240000402400800024055
:101FD8000000024038B5C36B1A6804682568016CB4
:101FE80004238B40134200F09B8015F0040F00F08F
:101FF8009780236813F0200F03D1236823F004038C
:1020080023600368AA4A934246D9783A934224D077
:102018001432934228D01432934227D01432934278
:1020280027D01432934227D01432934227D0143247
:10203800934227D002F56272934226D0143293421B
:1020480025D01432934224D01432934202D04FF454
:10205800802203E04FF4804200E00422954B5A604E
:10206800C36A03B1984738BD4022F7E74FF480624E
:10207800F4E74FF48042F1E74FF48022EEE74FF4A3
:102088008002EBE74FF08062E8E70422E6E74022AF
:10209800E4E74FF48062E1E7874A934224D01432A0
:1020A800934225D01432934224D01432934224D040
:1020B8001432934224D01432934224D014329342DF
:1020C80024D002F56272934223D01432934222D074
:1020D8001432934221D01432934202D04FF480221A
:1020E80003E04FF4804200E00422744B5A60B7E7E3
:1020F8004022FAE74FF48062F7E74FF48042F4E7B2
:102108004FF48022F1E74FF48002EEE74FF080624F
:10211800EBE70422E9E74022E7E74FF48062E4E7CF
:1021280002238B40134200F0A38015F0020F00F049
:102138009F80236813F0200F06D1236823F00A0339
:102148002360012380F821300368594A93424BD910
:10215800783A934224D0143293422DD014329342C9
:102168002CD0143293422CD0143293422CD01432F7
:1021780093422CD0143293422CD002F562729342CF
:102188002BD0143293422AD01432934229D01432DD
:10219800934202D04FF4003203E04FF4005200E0C3
:1021A8000222444B5A60002380F82030836A002BB7
:1021B8003FF459AF984756E72022F2E74FF40072F0
:1021C800EFE74FF40052ECE74FF40032E9E74FF441
:1021D8000012E6E74FF00072E3E70222E1E720226F
:1021E800DFE74FF40072DCE7334A934224D014321D
:1021F800934225D01432934224D01432934224D0EF
:102208001432934224D01432934224D0143293428D
:1022180024D002F56272934223D01432934222D022
:102228001432934221D01432934202D04FF4003238
:1022380003E04FF4005200E00222204B5A60B2E75C
:102248002022FAE74FF40072F7E74FF40052F4E760
:102258004FF40032F1E74FF40012EEE74FF000724E
:10226800EBE70222E9E72022E7E74FF40072E4E710
:10227800082303FA01F111423FF4F5AE15F0080FF7
:102288003FF4F1AE236823F00E032360026CC16BA8
:10229800012303FA02F24A60836380F821300023A5
:1022A80080F82030036B002B3FF4DDAE9847DAE668
:1022B8008000024000040240080002400000024082
:1022C800044B0022DA61044A136943F001031361E5
:1022D80001807047001A0020002002401A4BDB687A
:1022E80013F0100F27D0194AD36943F00203D361C2
:1022F8001023154AD26812F0040F06D01349CA6990
:1023080042F00102CA6143F004030F4AD26912F095
:10231800010F09D00D49CA6942F00402CA610A498D
:10232800CA6922F00102CA6140F20112934204D044
:10233800054AD36070470023DBE7034AD36923F0DB
:102348000103D361704700BF00200240001A00203B
:102358000A4B1B6913F0800F0DD0084B084A5A60CE
:1023680002F188325A601B6913F0800F01D00120F6
:102378007047002070470020704700BF00200240CF
:1023880023016745034A136943F080031361002062
:10239800704700BF0020024038B50446FFF772F9C5
:1023A8000546174BDB6813F0010F0AD0B4F1FF3F65
:1023B800F7D00CB3FFF766F9401BA042F1D9032010
:1023C80019E00F4BDB6813F0200F02D00C4B2022D2
:1023D800DA600B4BDB6813F0100F09D1084BDB698F
:1023E80013F0010F04D1064BDB6813F0040F05D07E
:1023F800FFF774FF012038BD0320FCE70020FAE74F
:10240800002002402DE9F843234C247E012C41D0C2
:102418001E4690460F4604461F4B01221A764CF280
:102428005030FFF7B9FF034670BB012C29D0022CAE
:1024380024D04FF0040900244C4525D22101C1F1D4
:102448002002A1F1200328FA01F106FA02F2114351
:1024580026FA03F3194389B207EB4400FFF730FF6C
:102468004CF25030FFF798FF0C4B1D6925F0010521
:102478001D61034640B90134E4B2DDE74FF00209BB
:10248800D9E74FF00109D6E7034A0021117618462B
:10249800BDE8F8830223FAE7001A00200020024072
:1024A800064B0022DA61064B1A6942F004021A61EF
:1024B8001A6942F040021A61704700BF001A0020F2
:1024C80000200240064B0022DA61064B1A6942F0EE
:1024D80002021A6158611A6942F040021A61704793
:1024E800001A002000200240264B1B7E012B46D0FC
:1024F80070B50E460446234B01221A760368022B58
:1025080020D04CF25030FFF747FF90BB4FF0FF331D
:102518003360A5680122E168A36803EBC123AB42DD
:1025280028D92846FFF7CEFF4CF25030FFF734FF8A
:10253800154A136923F0020313610246B8B905F579
:102548000065E8E74CF25030FFF726FF08B101229A
:1025580010E00120FFF7A4FF4CF25030FFF71CFFFA
:10256800024609490B6923F004030B6102E0356058
:1025780000E00122034B00211976104670BD0222AB
:1025880010467047001A002000200240F0B482B0C4
:1025980000263546A1E0002C59D0012C00D1CE6888
:1025A800FF2B68D88446FF2B68D8AC00DCF80020E5
:1025B8000F27A74022EA070206FA04F42243CCF8C0
:1025C80000204A6812F0805F00F086805E4A9469B5
:1025D80044F001049461926902F001020192019AA7
:1025E800AC08A71C594A52F8272005F00307BF007A
:1025F8004FF00F0C0CFA07FC22EA0C0C544A9042DC
:1026080042D002F5806290427FD002F5806290420B
:102618007DD002F58062904234D0042235E04D4FDF
:10262800BC4214D00BD94C4FBC4210D007F58037B0
:10263800BC420CD0A7F58017BC42B1D107E0A7F582
:102648008017BC4203D007F58037BC42A8D18C68FC
:102658007CB1012C08D042610826A1E7CE68083673
:102668009EE7CE680C369BE70261082698E70026AD
:1026780096E7042694E700F1040C94E7A5F1080412
:10268800A40093E7032200E00022BA4042EA0C02C9
:1026980002342E4F47F824204A6812F4803F38D07D
:1026A8002E4C22681A4322604A6812F4003F36D042
:1026B8002A4C62681A4362604A6812F4801F34D058
:1026C800264CA2681A43A2604A6812F4001F32D04E
:1026D800224CE2681343E36001350F2D31D8012203
:1026E800AA400B6813409A42F6D14C68122CB8D015
:1026F80095D8022CB2D07FF64EAF032CB7D0112C50
:102708007FF44EAFCE6804364AE70122BDE70222C5
:10271800BBE7124C226822EA03022260C4E70F4C8E
:10272800626822EA03026260C6E70C4CA26822EAE9
:102738000302A260C8E7094CE26822EA0303E360E7
:10274800CAE702B0F0BC7047001002400000014028
:102758000008014000002110000031100004014071
:102768008368194201D1002070470120704712B9CF
:102778000904016170470161704703685A6912F4DE
:10278800806F0DD06FF480625A61042303640023C4
:102798000363202280F83D2080F83C3001207047F8
:1027A80000207047F8B506460C4617461D461EE041
:1027B8002DB1FEF767FF069BC01AA84217D9002360
:1027C8003363202286F83D2086F83E3086F83C3078
:1027D80003201AE033685B6924EA03039BB2B3FA67
:1027E80083F35B099F420FD1B5F1FF3FE0D1C4F3FA
:1027F8000743012BEED033689B6924EA03039BB29D
:10280800B3FA83F35B09EDE70020F8BDF8B5044699
:102818000D4616461F4632E01A6842F400721A60E6
:1028280023686FF480625A610423236400232363BE
:10283800202284F83D2084F83C3001202DE026B188
:10284800FEF720FFC01BB04219D9002323632022C2
:1028580084F83D2084F83C3003201EE023685B693F
:1028680025EA03039BB2003318BF0123A3B12368F1
:102878005A6912F4806FCFD1B6F1FF3FDFD1C5F3AB
:102888000743012BEAD023689B6925EA03039BB21F
:10289800003318BF0123E9E70020F8BD70B50446EE
:1028A8000D46164623685B6913F0800F19D1204640
:1028B800FFF763FFB8B9B5F1FF3FF3D025B1FEF7D5
:1028C800E1FE801BA842EDD9236C43F0200323646A
:1028D80000232363202284F83D2084F83C30032021
:1028E80000E0002070BD0120FCE700002DE9F04168
:1028F80084B004460E46174698460B9D0268136836
:1029080043F48073136000950A9B00224FF0011175
:10291800FFF748FF002847D1236806F0FE061E612E
:102928002B460A9A26492046FFF770FF20B1236CF0
:10293800042B3ED1012338E00023039323685A690E
:1029480003929B690393039B2A460A992046FFF743
:10295800A5FF034648B1236C042B2CD122681368C9
:1029680043F40073136001231FE0B8F1010F13D083
:1029780023683A0A1A612A460A992046FFF78EFF09
:10298800034668B1236C042B17D12268136843F4FB
:1029980000731360012308E02268FFB2176104E0A6
:1029A8002268FFB2176100E00323184604B0BDE8AF
:1029B800F0810323F9E70323F7E70323F5E700BFD3
:1029C8000200010070B504460D46164623685B698F
:1029D80013F0040F19D12046FFF7CFFEB8B9B5F1AF
:1029E800FF3FF3D025B1FEF74DFE801BA842EDD97D
:1029F800236C43F02003236400232363202284F8FC
:102A08003D2084F83C30032000E0002070BD012008
:102A1800FCE70000002800F0A28038B5044690F8D2
:102A28003D30002B4FD0242384F83D3022681368B2
:102A380023F00103136000F0E7FD62684A4B9A42F5
:102A480046D84A4B98428CBF00230123002B40F004
:102A58008880474BA3FB00239B0C22685360616866
:102A6800414A91423AD801332268136261683E4B69
:102A780099423DD8431E4900B3FBF1F30133C3F338
:102A88000B03042B38BF04232268D361E369216A4E
:102A980022680B4313602369E16822680B43936043
:102AA8006369A16922680B43D3602268136843F005
:102AB8000103136000202064202384F83D30206344
:102AC80084F83E0038BD80F83C3006F06DFBAAE77C
:102AD800284B98428CBF00230123B7E74FF4967226
:102AE80002FB03F3244AA2FB03239B090133BBE740
:102AF800A368BBB9421E01EB4105B2FBF5F20132F6
:102B0800C2F30B02B2FA82F2520932BBC3B90138DE
:102B180001EB4103B0FBF3F30133C3F30B0343F4BD
:102B28000043B1E7421E01EB810505EB8505B2FBC9
:102B3800F5F20132C2F30B02B2FA82F25209E4E76B
:102B4800013801EB810303EB8303B0FBF3F301339B
:102B5800C3F30B0343F4404396E7012394E70120B2
:102B680070470120AEE700BFA08601007F841E00E9
:102B780083DE1B43FF083D00D34D62102DE9F04171
:102B880082B004460E4617469846FEF77BFD94F839
:102B98003D30DBB2202B04D00223184602B0BDE83A
:102BA800F081054600901923012251492046FFF77C
:102BB800F9FD002840F0938094F83C30012B00F098
:102BC8009080012384F83C3023681A6812F0010FC2
:102BD80003D11A6842F001021A602268136823F4CC
:102BE80000631360212384F83D30402384F83E308D
:102BF80000232364089B6362BDF8243063853D4B42
:102C0800E362638D238501950A9B009343463A4608
:102C180031462046FFF76AFEB0B1236C042B04D17D
:102C2800002384F83C300123B7E7002384F83C30C4
:102C38000323B2E7236C042B55D12268136843F4AD
:102C4800007313600123A8E7238D002B28D02A46A0
:102C58000A992046FFF722FE0028EBD1636A5A1C26
:102C6800626222681B781361238D013B9BB2238526
:102C7800628D013A92B262852268516911F0040F9F
:102C8800E2D0002BE0D0636A591C61621B781361A3
:102C9800238D013B2385638D013B9BB26385D3E77D
:102CA8002A460A992046FFF78DFE034648B1236C51
:102CB800042B1AD12268136843F4007313600123AC
:102CC8006BE721680A6842F400720A60202284F8DF
:102CD8003D20002284F83E2084F83C205DE7022352
:102CE8005BE7022359E7032357E7032355E700BFB0
:102CF800020010000000FFFF2DE9F04385B00446F4
:102D0800884691461D46FEF7BDFC94F83D30DBB27F
:102D1800202B04D00223184605B0BDE8F0830646F0
:102D280000901923012256492046FFF73BFD002851
:102D380040F09B8094F83C30012B00F098800123F0
:102D480084F83C3023681A6812F0010F03D11A681E
:102D580042F001021A602268136823F400631360CA
:102D6800242384F83D3000232364A3F58033E362F1
:102D7800012735E0A02384F83D3022685369C3F366
:102D880040035269C2F3802294F83D10C9B253B986
:102D98004AB9A02907D0002DECD0FEF773FC801BA0
:102DA800A842EAD9E6E7202384F83D3023685A6927
:102DB80012F0020F35D11A6842F400721A602368C3
:102DC8006FF480625A610096192301222C4920462B
:102DD800FFF7E8FC002850D17B1C4F453DD21F4629
:102DE8002268136843F48073136000962B46002210
:102DF8004FF001112046FFF7D5FC002839D1236890
:102E080008F0FE021A61FEF73DFC06462268536987
:102E1800C3F340035269C2F3802294F83D10C9B24B
:102E2800B5E71A6842F400721A6000230393236816
:102E38005A6903929B690393039B00961923012205
:102E48000F492046FFF7AEFC0346A0B9202284F8BC
:102E58003D20002284F83C205DE7202384F83D30A3
:102E6800002384F83C30012355E7022353E702236B
:102E780051E703234FE703234DE703234BE700BF45
:102E880002001000014B01221A60704720000E4218
:102E980082B0084B1B68084AA2FB03235B0A00FBAD
:102EA80003F0019000BF019B5A1E0192002BF9D13B
:102EB80002B07047FC000020D34D621070B582B09C
:102EC8000446036813F0010F2CD0AB4B5B6803F08A
:102ED8000C03042B1DD0A84B5B6803F00C03082BD4
:102EE80012D0A368B3F5803F41D0002B55D103F130
:102EF800804303F504331A6822F480321A601A6892
:102F080022F480221A6037E09B4B5B6813F4803F01
:102F1800E7D0994B1B6813F4003F03D0A368002B3C
:102F280000F01F82236813F0020F76D0924B5B6883
:102F380013F00C0F5FD0904B5B6803F00C03082B69
:102F480054D06369002B00F08A808C4B01221A60F0
:102F5800FEF798FB0546884B1B6813F0020F75D1E6
:102F6800FEF790FB401B0228F5D90320FCE1824ABA
:102F7800136843F480331360A36843B3FEF782FBFE
:102F880005467D4B1B6813F4003FCBD1FEF77AFB57
:102F9800401B6428F5D90320E6E1B3F5A02F09D03A
:102FA800754B1A6822F480321A601A6822F480225B
:102FB8001A60E1E703F18043A3F53C331A6842F451
:102FC80080221A601A6842F480321A60D4E7FEF749
:102FD80059FB0546684B1B6813F4003FA2D0FEF767
:102FE80051FB401B6428F5D90320BDE1624B5B68A7
:102FF80013F4803FA5D1604B1B6813F0020F04D077
:103008006369012B01D00120AEE15B4A136823F00C
:10301800F803A16943EAC1031360236813F0080F9A
:1030280032D0E369002B5BD0554B01221A60FEF7C2
:1030380029FB0546504B5B6A13F0020F21D1FEF7BE
:1030480021FB401B0228F5D903208DE14A4A136869
:1030580023F0F803A16943EAC1031360DDE7474B96
:1030680000221A60FEF70EFB0546434B1B6813F05F
:10307800020FD2D0FEF706FB401B0228F5D9032029
:1030880072E10120FFF704FF236813F0040F00F03A
:103098009780394BDB6913F0805F33D1364BDA699F
:1030A80042F08052DA61DB6903F080530193019B9F
:1030B8000125344B1B6813F4807F25D02369012B2D
:1030C80036D0002B4CD103F1804303F504331A6A40
:1030D80022F001021A621A6A22F004021A622CE033
:1030E800274B00221A60FEF7CDFA0546224B5B6A91
:1030F80013F0020FC8D0FEF7C5FA401B0228F5D915
:10310800032031E10025D4E71E4A136843F4807395
:103118001360FEF7B7FA06461A4B1B6813F4807F54
:10312800CCD1FEF7AFFA801B6428F5D903201BE148
:10313800114A136A43F001031362236973B3FEF75C
:10314800A1FA06460C4B1B6A13F0020F37D1FEF7A3
:1031580099FA801B41F288339842F3D9032003E19E
:10316800052B11D0044B1A6A22F001021A621A6A5E
:1031780022F004021A62E0E7001002400000424216
:103188008004424200700040794B1A6A42F00402FF
:103198001A621A6A42F001021A62CEE7FEF772FA60
:1031A8000646734B1B6A13F0020F08D0FEF76AFA43
:1031B800801B41F288339842F3D90320D4E0EDB95B
:1031C800E36A002B6FD06A4A526812F4803F05D038
:1031D800674A526802F00C02082A15D0022B4BD11C
:1031E800634B1B6813F0805F15D0614BDB6A03F0FB
:1031F800F003626B93420ED00120B5E05C4AD369BC
:1032080023F08053D361DBE7594AD26A12F4803F36
:10321800E4D00120A8E0574B00221A60FEF732FAEA
:103228000546534B1B6813F0006F06D0FEF72AFAC9
:10323800401B6428F5D9032096E04D4AD36A23F051
:10324800F003616B0B43D362D36A23F47063216B81
:103258000B43D362474B01221A60FEF713FA054667
:10326800434B1B6813F0006F1DD1FEF70BFA401B90
:103278006428F5D9032077E03D4AD36A23F48033E4
:10328800D3623C4B00221A60FEF7FCF90546384B26
:103298001B6813F0006F06D0FEF7F4F9401B642892
:1032A800F5D9032060E0236A002B5CD0304A5268CD
:1032B80002F00C02082A59D0022B11D02E4B002202
:1032C8001A60FEF7DFF90446294B1B6813F0007FEC
:1032D80045D0FEF7D7F9001B0228F5D9032043E0B3
:1032E800254B00221A60FEF7CDF90546204B1B68D6
:1032F80013F0007F06D0FEF7C5F9401B0228F5D968
:10330800032031E0636AB3F5803F1AD018494B684F
:1033180023F47413626AA06A024313434B60164B8A
:1033280001221A60FEF7AEF90446114B1B6813F030
:10333800007F12D1FEF7A6F9001B0228F5D9032059
:1033480012E00B4AD36A61680B43D362D36A23F055
:103358000F03E1680B43D362D8E7002004E00020A4
:1033680002E0012000E0002002B070BD0120FBE770
:103378000010024068004242600042422DE9F04FCE
:1033880089B0334C04AD94E80F0007C52B806D4617
:10339800103494E80F0085E80F002E4B5B6803F0AB
:1033A8000C02082A52D1C3F3834208A90A4412F82E
:1033B800104C13F4803F43D02649CB6A03F00F0327
:1033C80008AA134413F8202CCB6A13F4803F31D099
:1033D800CB6AC3F303130133C86AC0F30320023076
:1033E800A0FB046770017901801B61EB07018B4624
:1033F8004FEA811949EA90694FEA8018B8EB000A48
:1034080069EB0B0B4FEACB0545EA5A754FEACA0C34
:103418001CEB060045EB07014D0245EAD055460274
:1034280030462946A3FB0223FDF756FF0D2C0AD18F
:10343800400808E0084800FB04F0B0FBF2F0F5E7AC
:10344800064800FB04F009B0BDE8F08F0248FAE72F
:1034580028DA00080010024000127A0000093D0036
:10346800624B1B6803F007038B420CD25F4A136858
:1034780023F007030B431360136803F007038B4221
:1034880001D00120704770B5036813F0020F17D000
:1034980013F0040F04D0564A536843F4E0635360B2
:1034A800036813F0080F04D0514A536843F460537B
:1034B80053604F4A536823F0F003846823435360F2
:1034C8000D460446036813F0010F52D04368012BE0
:1034D80023D0022B28D0464A126812F0020F00F0BF
:1034E800828043494A6822F0030213434B60FEF787
:1034F800C9F806466368012B1DD0022B2AD03C4B25
:103508005B6813F00C0F34D0FEF7BCF8801B41F257
:1035180088339842F3D9032064E0354A126812F4DC
:10352800003FDED101205DE0314A126812F0007FD1
:10353800D7D1012056E02E4B5B6803F00C03042B17
:1035480017D0FEF79FF8801B41F288339842F2D9D2
:10355800032047E0264B5B6803F00C03082B08D0D8
:10356800FEF790F8801B41F288339842F2D9032085
:1035780038E01E4B1B6803F00703AB420CD91B4A0B
:10358800136823F007032B431360136803F0070342
:10359800AB4201D0012025E0236813F0040F06D0C8
:1035A800134A536823F4E063E1680B4353602368CC
:1035B80013F0080F07D00E4A536823F460532169AB
:1035C80043EAC1035360FFF7D9FE094B5B68C3F3B5
:1035D8000313084AD35CD840074B18600020FEF755
:1035E8000FF8002070BD0120FCE700BF002002405A
:1035F8000010024020DC0008FC000020014B186885
:10360800704700BFFC00002008B5FFF7F7FF044B28
:103618005B68C3F30223034AD35CD84008BD00BFEC
:103628000010024030DC000808B5FFF7E7FF044B44
:103638005B68C3F3C223034AD35CD84008BD00BF0C
:103648000010024030DC000870B582B00446036800
:1036580013F0010F34D06B4BDB6913F0805F6DD131
:10366800684BDA6942F08052DA61DB6903F0805313
:103678000193019B0125644B1B6813F4807F5FD085
:10368800604B1B6A13F4407311D0626802F44072F5
:103698009A420CD05B4A136A23F440705B490126B6
:1036A8000E6000260E60106213F0010F5CD1554ABF
:1036B800136A23F4407361680B431362002D64D1CD
:1036C800236813F0020F06D04E4A536823F4404390
:1036D800A1680B435360236813F0040F06D0494ACE
:1036E800D36A23F40033E1680B43D362236813F0F1
:1036F800080F06D0434AD36A23F4802321690B4379
:10370800D362404BDB6A13F4003F04D13D4BDB6AC4
:1037180013F4802F66D03B4B1B6813F0805F58D1A1
:10372800384B1B6813F0806F34D0364BDB6A03F0DC
:10373800F003A26993422DD001205FE000259AE7AB
:10374800314A136843F480731360FDF79BFF064604
:103758002D4B1B6813F4807F92D1FDF793FF801BDC
:103768006428F5D9032049E0FDF78CFF0646254B70
:103778001B6A13F0020F9AD1FDF784FF801B41F2F8
:1037880088339842F3D9032038E0D36923F0805373
:10379800D36195E71B4AD36A23F0F003A1690B4371
:1037A800D362D36A23F4704361690B43D362184B25
:1037B80001221A60FDF766FF0546124B1B6813F0DD
:1037C800005F0FD1FDF75EFF401B6428F5D9032089
:1037D80014E00C4BDB6A03F470436269934201D036
:1037E80001200BE0236813F0100F09D0054A536835
:1037F80023F48003E1690B435360002002B070BDDD
:103808000020FBE7001002400070004040044242E4
:103818007000424270B588B006466A4C04AD94E820
:103828000F0007C52B806D46103494E80F0085E81B
:103838000F00701E0F2800F2B680DFE800F087A89E
:10384800B44DB4B4B46AB4B4B4B4B4B4B4085E4B4C
:103858005A681B6813F0807F00F0A780C2F3834387
:1038680008A90B4413F8101C12F4803F26D0564ABE
:10387800D36A03F00F0308A8034413F8204CD36A53
:1038880013F4803F14D0D36AC3F303130133D06A0F
:10389800C0F3032002304D4AB2FBF3F300FB03F000
:1038A800B0FBF4F001FB00F00D290AD1400808E054
:1038B8004648B0FBF4F001FB00F0F5E7444800FB94
:1038C80001F0414B5B6813F4800F6AD14000414B13
:1038D800A3FB0030400864E03B4BDB6A13F4003F75
:1038E80014D0394B1B6813F0805F60D0364AD36A16
:1038F800C3F303130133D06AC0F303300230334AF1
:10390800B2FBF3F300FB03F040004AE0FFF736FD9B
:1039180047E02D4BDB6A13F4802F14D02A4B1B6829
:1039280013F0805F45D0284AD36AC3F303130133E9
:10393800D06AC0F303300230244AB2FBF3F300FB31
:1039480003F040002DE0FFF719FD2AE01E4B1B6A2B
:1039580040F202321A40B2F5817F2CD003F4407352
:10396800B3F5007F04D0B3F5407F09D0002018E0FC
:10397800154A526A12F0020FF5D049F6404010E09D
:10398800114B1B6813F4003F18D1002009E0FFF722
:103998004BFE0D4B5B68C3F3813301335B00B0FB17
:1039A800F3F008B070BD0020FBE70020F9E7002025
:1039B800F7E70020F5E74FF40040F2E74FF2244024
:1039C800EFE700BF48DA00080010024000127A0052
:1039D80000093D00ABAAAAAA30B402689469A5B24E
:1039E800D369916988B2854205D0D06980B240EA2E
:1039F800014030BC704798B240EA0440F9E70368D8
:103A0800186A5B6A9BB243EA00407047002302E0F1
:103A180001330A38C0B20928FAD81B01DBB21843AF
:103A28007047030903EB83035A0000F00F001044AA
:103A3800C0B2704710F0030F16D10D4BA3FB002343
:103A48005B09642202FB13039BB27BB9084BA3FBFF
:103A58000023DB094FF4C87202FB130080B208B1DF
:103A680000207047012070470020704701207047F0
:103A78001F85EB5110B400F5FA64022920D901EB37
:103A88004103C1EBC3011F4BA3FB011302EB53031B
:103A9800234403EB94031C4AA2FB0424A3EB541312
:103AA80003EBD41302331948A0FB03201A1A00EBC6
:103AB80052008008C0EBC000181AC0B210BC704792
:103AC80001EB4103C1EBC3010E4BA3FB011302EB56
:103AD8005303234400F2CF7003EB90030A4AA2FB7E
:103AE8000020A3EB501303EBD01304330748A0FBCB
:103AF80003201A1A00EB52008008C0EBC000181A05
:103B0800DBE700BF398EE3381F85EB512549922446
:103B18002DE9F8430746884690F80F90447B857B4B
:103B2800002603E01E2D1FD80135013646453DD23B
:103B3800012CF7D0032CF5D0052CF3D0072CF1D0AD
:103B4800082CEFD00A2CEDD00C2CEBD0042C15D07F
:103B5800062C13D0092C11D00B2C0FD0022CE4D139
:103B68001B2D12D80135E0E70C2C02D001340125B9
:103B7800DBE709F1010901252C46D6E71D2D01D8FF
:103B88000135D2E701340125CFE71C2D04D01D2DC6
:103B9800CBD101340125C8E71FFA89F0FFF74AFFA6
:103BA80008B10135C1E701340125BEE787F80F9058
:103BB800E1B27973EAB2BA734846FFF75BFF38732C
:103BC800BDE8F88338B50446FDF75CFD0546236873
:103BD8005A6812F0200F07D1FDF754FD401BB0F5CD
:103BE8007A7FF4D9032004E05A6842F010025A6040
:103BF800002038BD38B504460268536823F0100326
:103C08005360FDF73FFD054623685B6813F0200FFE
:103C180007D1FDF737FD401BB0F57A7FF4D90320B3
:103C280000E0002038BD38B505460C46FFF7CAFF4E
:103C380010B10123184638BD2B68220C9A612B68F5
:103C4800A4B2DC612846FFF7D5FF03460028F1D06F
:103C58000123EFE738B505460C46FFF7B3FF10B16F
:103C68000123184638BD2B68220C1A622B68A4B2AF
:103C78005C622846FFF7BEFF03460028F1D0012307
:103C8800EFE770B5002857D00446002956D0037CCA
:103C9800012B55D00E460123037402234374BAB98D
:103CA8000D784B78C3EB03139A004FF4616303FB61
:103CB80005258B781D4429462046FFF7B4FF0646A4
:103CC800C8B104236374002323740126304670BDF1
:103CD8000878FFF7A6FE4FF4616505FB00F57078DC
:103CE800FFF79FFEC0EB001083001D44B078FFF77C
:103CF80098FE0544DFE72268536823F00503536004
:103D08002046FFF77CFEB0F1FF3F01D0854204D882
:103D18000123637400232374D8E700F5A83101F563
:103D2800C0712046FFF796FF0028F1D00423637482
:103D3800002323740126C9E70126C7E70126C5E742
:103D48000226C3E7002875D02DE9F047054600296B
:103D580072D003685B6813F0040F02D00120BDE83D
:103D6800F08716460C46FFF737FE0746364AA2FB91
:103D78000032D20A4FF4616000FB1270334BA3FB90
:103D880000135B096370C3EB03139900411AA17018
:103D9800172A10D82270002E54D02078FFF736FE4C
:103DA80020706078FFF732FE6070A078FFF72EFE73
:103DB800A0700020D3E7264BA3FB07384FEA18482A
:103DC800244BA3FB02131B0903EB4303D900531A2B
:103DD80023702846FFF713FE8246B0F1FF3F03D059
:103DE80087421CD2A0EB070A194BA3FB07394FEAFD
:103DF8001949194B03FB197949462846FFF713FF60
:103E0800E0B9BAF1FF3F0DD00AEB09012846FFF7E8
:103E180021FFA8B941462846FFF77AFEBBE74FF0D5
:103E2800FF3AE1E751462846FFF714FF0028F1D092
:103E3800012094E701207047012090E701208EE7D8
:103E480001208CE700208AE7C5B3A2918988888879
:103E580007452EC2ABAAAAAA8051010000285DD04E
:103E680038B5044600295BD0037C012B5AD00D4697
:103E78000123037402234374D2B9CB78C3734B78FC
:103E880043738B788373A27B617BE07BFFF7F2FD42
:103E9800207328702046FFF79FFD234BA3FB0023C8
:103EA800B3F5484F11D2012363740020207438BD44
:103EB800C878FFF7B6FDE0736878FFF7B2FD607366
:103EC800A878FFF7AEFDA073DDE7184DA5FB003518
:103ED8002D0C174B03FB150529462046FFF7A3FEBB
:103EE80028B104236374002323740120DFE72046EC
:103EF800FFF785FDB0F1FF3FD5D08542D3D900F556
:103F0800A83101F5C0712046FFF7A4FE0028CAD0E9
:103F180004236374002323740120C8E70120704739
:103F28000120C4E70220C2E7C5B3A29107452EC20B
:103F3800805101002DE9F04182B00023ADF8043032
:103F48008DF8063000B3054601B317460C461A46ED
:103F580001A9FFF7F7FE0646E8B92B7B2370E87B3B
:103F6800E07095F80D8084F80180AD7BA57077B17D
:103F7800FFF74CFDE0704046FFF748FD60702846AB
:103F8800FFF744FDA07002E0012600E0012630465C
:103F980002B0BDE8F0810126F9E7C0B138B50446A2
:103FA8000268536823F008035360FDF76BFB05466E
:103FB80023685B6813F0080F07D1FDF763FB401B0C
:103FC800B0F57A7FF4D9032000E0002038BD012045
:103FD8007047000000285AD010B50446437C53B1FE
:103FE800022363742046FFF7D8FF40B104236374AB
:103FF8000123184610BD037405F09AF9F0E720462E
:10400800FFF7E0FD002830D12268536823F007034A
:104018005360A36823B11F4A136B23F00103136392
:104028001C4AD36A23F46073A1680B43D3626268A5
:10403800B2F1FF3F1DD021688B6823F00F0343EADC
:1040480012438B602168CB681B0C1B0492B213438C
:10405800CB602046FFF7CEFD0346A0B90022E273ED
:1040680001226273A2736274C3E704236374012399
:10407800BFE70120FFF7CEFB08B1421EDBE70423B0
:1040880063740123B5E7042363740123B1E70123B3
:1040980018467047006C0040890001F1804101F525
:1040A800D84192B20A607047890001F1804101F558
:1040B800D841086880B270470268D36843F00103AA
:1040C800D3600268136843F001031360002070474F
:1040D8000268D36823F00103D3600368196A41F2C8
:1040E8001112114208D1196A40F24442114203D117
:1040F8001A6822F001021A60002070477047704762
:1041080070477047704710B5044603681A6912F083
:10411800020F11D0DA6812F0020F0DD06FF0020210
:104128001A610123037703689B6913F0030F70D0AA
:10413800FFF7E6FF0023237723681A6912F0040FBC
:1041480012D0DA6812F0040F0ED06FF004021A6170
:104158000223237723689B6913F4407F5FD02046AE
:10416800FFF7CEFF0023237723681A6912F0080FA0
:1041780012D0DA6812F0080F0ED06FF008021A6138
:10418800042323772368DB6913F0030F4ED02046FE
:10419800FFF7B6FF0023237723681A6912F0100F80
:1041A80012D0DA6812F0100F0ED06FF010021A61F8
:1041B800082323772368DB6913F4407F3DD020462A
:1041C800FFF79EFF0023237723681A6912F0010F77
:1041D80003D0DA6812F0010F36D123681A6912F099
:1041E800800F03D0DA6812F0800F34D123681A697F
:1041F80012F0400F03D0DA6812F0400F32D1236872
:104208001A6912F0200F03D0DA6812F0200F30D1AB
:1042180010BDFFF774FF2046FFF773FF8AE72046BB
:10422800FFF76DFF2046FFF76CFF9BE72046FFF77F
:1042380066FF2046FFF765FFACE72046FFF75FFF04
:104248002046FFF75EFFBDE76FF001021A612046C6
:10425800FFF754FFC1E76FF080021A61204600F0B3
:1042680094F8C3E76FF040021A612046FFF74AFF4F
:10427800C5E76FF020021A61204600F085F8C7E70D
:1042880003681F4A90420ED0B0F1804F0BD0A2F5C0
:104298009432904207D002F58062904203D002F532
:1042A8008062904203D123F070034A681343144A92
:1042B80090420ED0B0F1804F0BD0A2F594329042CC
:1042C80007D002F58062904203D002F580629042E6
:1042D80003D123F44073CA68134323F080034A6967
:1042E800134303608B68C3620B688362044B984274
:1042F80002D00123436170470B690363F9E700BFEC
:10430800002C0140A8B110B5044690F83D305BB1CF
:10431800022384F83D30211D2068FFF7B1FF0123F7
:1043280084F83D30002010BD80F83C3005F0EAF9F3
:10433800EEE70120704790F83C30012B22D030B4D2
:10434800012280F83C20022380F83D30046863682D
:1043580023F070036360046863680D682B4363602F
:104368000468A36823F08003A3600468A36849680D
:104378000B43A36080F83D20002380F83C301846AA
:1043880030BC704702207047704770470268D36896
:1043980023F49073D3600268536923F001035361D7
:1043A800202380F83A30704790F83930DBB2212B5F
:1043B8002AD18368B3F5805F16D0036A5A1C02625B
:1043C8001A7803685A60C38C013B9BB2C384EBB96B
:1043D8000268D36823F08003D3600268D36843F08F
:1043E8004003D36000207047036A1B880268C3F348
:1043F8000803536003691BB9036A02330362E2E7E7
:10440800036A01330362DEE7022070470020704729
:104418002DE9F84305460268136923F44053C1683F
:104428000B431361836802691343426913430168AC
:10443800CA6822F4B05222F00C021343CB6002681F
:10444800536923F4407381690B4353610268594BE4
:104458009A4257D0FFF7D8F800EB800000EB8000B5
:104468006C68A400B0FBF4F4534FA7FB0434640950
:104478002601FFF7C9F800EB800000EB80006C68AC
:10448800A400B0FBF4F9FFF7BFF800EB800000EBE5
:1044980080006C68A400B0FBF4F4A7FB0434640942
:1044A8004FF0640808FB149424013234A7FB043449
:1044B800640904F0F0043444FFF7A6F800EB800028
:1044C80000EB80006E68B600B0FBF6F6FFF79CF8CC
:1044D80000EB800000EB80006B689B00B0FBF3F002
:1044E800A7FB0030400908FB10684FEA081808F1DC
:1044F8003208A7FB0837C7F343172B6827449F6088
:10450800BDE8F883FFF790F800EB800000EB80002F
:104518006C68A400B0FBF4F4274FA7FB04346409CB
:104528002601FFF781F800EB800000EB80006C6843
:10453800A400B0FBF4F9FFF777F800EB800000EB7C
:1045480080006C68A400B0FBF4F4A7FB0434640991
:104558004FF0640808FB149424013234A7FB043498
:10456800640904F0F0043444FFF75EF800EB8000BF
:1045780000EB80006E68B600B0FBF6F6FFF754F863
:1045880000EB800000EB80006B689B00B0FBF3F051
:10459800A7FB0030400908FB10684FEA081808F12B
:1045A8003208A7FB0837C7F343172B6827449F60D7
:1045B800A6E700BF003801401F85EB512DE9F04107
:1045C80005460F4616469846069C2B681B6837EA30
:1045D80003030CBF01230023B3421DD1B4F1FF3FF5
:1045E800F3D02CB1FDF74EF8A0EB0800A042ECD9AF
:1045F8002A68D36823F4D073D3602A68536923F0F8
:1046080001035361202385F8393085F83A300023B7
:1046180085F83830032000E00020BDE8F08158B369
:1046280010B5044690F839300BB3242384F8393098
:104638002268D36823F40053D3602046FFF7E8FECE
:104648002268136923F4904313612268536923F0A5
:104658002A0353612268D36843F40053D3600020CF
:10466800E063202384F8393084F83A3010BD80F8AC
:10467800383005F0B3F8D8E7012070472DE9F0414C
:1046880082B01E4690F83930DBB2202B55D1044653
:104698000D469046002955D0002A55D090F838305C
:1046A800012B53D0012380F838300023C363212322
:1046B80080F83930FCF7E6FF0746A4F82480A4F810
:1046C800268010E000963B46002280212046FFF716
:1046D80075FF00283CD12B882268C3F30803536078
:1046E8002369C3B90235E38C9BB2B3B1E38C013BB8
:1046F8009BB2E384A368B3F5805FE3D000963B46A2
:10470800002280212046FFF759FF18BB2A7823682A
:104718005A600135E7E70135E5E700963B46002298
:1047280040212046FFF74AFF0346A8B9202284F813
:104738003920002284F8382000E00223184602B00D
:10474800BDE8F0810123F9E70123F7E70223F5E744
:104758000323F3E70323F1E70323EFE72DE9F04110
:1047680082B01E4690F83A30DBB2202B5AD104466C
:104778000D469046002959D0002A59D090F8383073
:10478800012B57D0012380F838300023C36322233C
:1047980080F83A30FCF776FF0746A4F82C80A4F896
:1047A8002E801DE000963B46002220212046FFF780
:1047B80005FF002840D1236933B923685B68C3F338
:1047C800080325F8023B0BE023685B68DBB225F899
:1047D800013B05E023685B6803F07F032B7001351C
:1047E800E38D9BB2BBB1E38D013B9BB2E385A3682C
:1047F800B3F5805FD6D000963B46002220212046A4
:10480800FFF7DCFED0B92369002BE3D123685B688E
:104818002B700135E4E7202384F83A30002084F82F
:10482800380000E0022002B0BDE8F0810120FAE77C
:104838000120F8E70220F6E70320F4E70320F2E777
:1048480008B50168CB6823F04003CB60202380F8CB
:10485800393003F099FE002008BD08B590F83A30C9
:10486800DBB2222B45D18368B3F5805F0ED0036994
:1048780003BB03685A68836A591C81621A70C38D26
:10488800013B9BB2C385F3B1002033E0826A036920
:1048980043B903685B68C3F308031380836A023370
:1048A8008362ECE703685B68DBB21380836A0133D9
:1048B8008362E4E703685B68826A511C816203F0E3
:1048C8007F031370DBE70268D36823F02003D3600B
:1048D8000268D36823F48073D3600268536923F0B5
:1048E80001035361202380F83A3003F051FE002081
:1048F80000E0022008BD000010B5044602681368F5
:10490800D168526913F00F0005D113F0200F02D0BF
:1049180011F0200F53D1002867D012F0010202D104
:1049280011F4907F61D013F0010F06D011F4807F4D
:1049380003D0E06B40F00100E06313F0040F04D0F3
:104948001AB1E06B40F00200E06313F0020F04D0EC
:104958001AB1E06B40F00400E06313F0080F04D0D4
:104968001AB1E26B42F00802E263E26B002A48D017
:1049780013F0200F02D011F0200F24D123685B69B7
:1049880003F04003E26B12F0080F00D13BB320465E
:10499800FFF7FCFC23685A6912F0400F1BD05A69D4
:1049A80022F040025A61636B8BB11A4A5A63606BFA
:1049B800FDF75CFA28B3606B436B984721E020460B
:1049C800FFF74BFF1DE02046FFF747FFD6E72046DD
:1049D80003F044FE15E0204603F040FE11E02046B7
:1049E80003F03CFE0023E3630BE013F0800F02D0DA
:1049F80011F0800F06D113F0400F02D011F0400FD4
:104A080004D110BD2046FFF7CFFCFAE72046FFF798
:104A180017FFF6E7214A000808B5406A0023C38556
:104A2800C38403F01BFE08BDF0B583B00F46002613
:104A3800ADF80660134D01462846FFF735FB80B2F6
:104A4800ADF80600BDF806300F4C1B0A2370BDF800
:104A58000630E370ADF8046039462846FFF724FBBA
:104A680080B2ADF80400BDF804301B0AA370BDF88D
:104A780004306370324621462846FFF7EFF903B049
:104A8800F0BD00BFF01A00205403002008B5012132
:104A98000148FFF709FB08BDF01A002008B50246D7
:104AA80001210248FFF7F8FA08BD00BFF01A0020FC
:104AB80070B50F4C2046FFF770FA0E4DAB69EE69E2
:104AC80046EA034603210220FFF7AEFF330CAB6131
:104AD800EE612046FFF761FA074D0022291D2046A6
:104AE800FFF730F9002229462046FFF723FA70BD68
:104AF800F01A0020002800405403002070B58AB046
:104B08000646114C114D002221462846FFF712FA9D
:104B18000022211D2846FFF715F9E3786433069330
:104B28006378013B0593A37804932379039363790E
:104B38000293A3790AA840F8243D00F02DFEC6E9A7
:104B480000010AB070BD00BF54030020F01A002015
:104B580070B50646094D0A4C002229462046FFF743
:104B6800E9F9AD7831462046FFF79EFAB5EB102FEC
:104B780001D0002070BD0120FCE700BF54030020D5
:104B8800F01A0020F0B583B007460E46124C134DBC
:104B9800002221462846FFF7CDF90022ADF806206D
:104BA8002178E37843EA0123ADF80630ADF8042014
:104BB800A278637843EA0223ADF80430BDF80620F2
:104BC80039462846FFF768FABDF8042031462846DA
:104BD800FFF762FA03B0F0BD54030020F01A00207A
:104BE80070B58AB06C4B07AC93E8070084E80700FF
:104BF8006A4A04AB07CA03C31A700023ADF80C3025
:104C08008DF80E30029302226549204606F044FAD8
:104C1800002854D00222634907A806F03DFA00286C
:104C280000F092800222604907A806F035FA0028B1
:104C380000F08E8002225D4907A806F02DFA0028B0
:104C480000F08A8002225A4907A806F025FA0028AF
:104C580000F086800222574907A806F01DFA0028AE
:104C680000F082800222544907A806F015FA0028AD
:104C78007ED00222514907A806F00EFA00287BD000
:104C880002224F4907A806F007FA002878D0022226
:104C98004C4907A806F000FA002875D002224A49B4
:104CA80007A806F0F9F9002872D00222474907A898
:104CB80006F0F2F930B90C238DF8093002E001232F
:104CC8008DF8093000260AAC44F8246D404D224680
:104CD800294608A806F0E8FF019B8DF80A3022460D
:104CE8003C490DF1230006F0DFFF019B30338DF8BE
:104CF8000B302246294604A806F0D6FF019B8DF802
:104D08000C30224629460DF1130006F0CDFF019B19
:104D18008DF80D30224629460DF1160006F0C4FF25
:104D2800019B8DF80E302C4C324602A92046FFF725
:104D380095F8324603A92046FEF7A3FF0321022077
:104D4800FFF720FF0AB070BD02238DF80930B9E7DC
:104D580003238DF80930B5E704238DF80930B1E74E
:104D680005238DF80930ADE706238DF80930A9E74A
:104D780007238DF80930A5E708238DF80930A1E746
:104D880009238DF809309DE70A238DF8093099E742
:104D98000B238DF8093095E77CDC000888DC0008D7
:104DA80044DC000848DC00084CDC000850DC000843
:104DB80054DC000858DC00085CDC000860DC0008F3
:104DC80064DC000868DC00086CDC000870DC0008A3
:104DD80074DC000878DC0008F01A002038B50446B6
:104DE8000D4664220023FCF727FA13430AD14FF437
:104DF800C872002320462946FCF71EFA134303D144
:104E0800002000E0002038BD0120FCE742694B6922
:104E18009A421EDC1FDB02690B699A421EDC1FDB0B
:104E2800C268CB689A421EDC1FDB82688B689A4294
:104E38001EDC1FDB42684B689A421EDC1FDB0268DF
:104E48000B689A421EDC01DB002070474FF0FF30F0
:104E58007047012070474FF0FF30704701207047BE
:104E68004FF0FF307047012070474FF0FF30704718
:104E7800012070474FF0FF307047012070474FF016
:104E8800FF3070470120704738B504461546FFF7D4
:104E9800BDFFB0F1FF3F09D029462046FFF7B6FF16
:104EA800012801D0012038BD0020FCE70020FAE7E6
:104EB8002DE9F843B0F5FA6841F1FF394FF4FA6289
:104EC800002382428B4107DA6FF4FA664FF0FF370E
:104ED80016EB000847EB01096422002340464946C7
:104EE800FCF7AAF904460D46074A4FF0FF3340463F
:104EF8004946FCF7A1F9221845EB010319011001F5
:104F080041EA1271BDE8F88370FEFFFF2DE9F84F02
:104F18008046894614461D4682428B4135DA4FF059
:104F2800010A4FF416620023424573EB09032FDA96
:104F38004FF4C8720023B8F5166049F1FF31FCF749
:104F48007BF98B0043EA90738200B0EB020B61EBB4
:104F5800030C4FEACC0646EA5B764FEACB073A1ACF
:104F680066EB01031E0146EA1276170118EB0708E3
:104F780049EB0609544E430006FB0133A0FB0667C4
:104F88001F44BAF1000F43DC76E04FF0FF3AC8E760
:104F9800B8F5C86F79F1000328DA4FF4C872002316
:104FA800B8F5C86049F1FF31FCF746F9021841EB42
:104FB800010312EB000B43EB010C4FEACC0646EA67
:104FC8005B764FEACB073A1846EB01031E0146EA27
:104FD8001276170118EB070849EB06093A4E430009
:104FE80006FB0133A0FB06671F44CAE7002600271B
:104FF800C7E7002200E00122344B33F91220344B7A
:1050080003FB02F3F61847EBE377013445F100059B
:10501800A94508BFA04553D04FF4C87200232046C5
:105028002946FCF709F91343E5D004F003020023ED
:1050380013430DD16422002320462946FCF7FCF8CF
:10504800134307D0012C75F10003D2DB0122D3E70B
:105058000022D1E70022CFE7002200E001221B4B0B
:1050680033F912201A4B03FB02F3F61A67EBE377C6
:1050780014F1FF3445F1FF35A94508BFA0451FD0FD
:105088004FF4C872002320462946FCF7D5F813438D
:10509800E4D004F00302002313430DD1642200235B
:1050A80020462946FCF7C8F8134307D0012C75F1B0
:1050B8000003D1DB0122D2E70022D0E70022CEE7AD
:1050C80030463946BDE8F88F805960F068DA000844
:1050D80080510100F8B53E4A4FF0FF33141843EBF6
:1050E8000105002D08BF432C44D304460D46FFF7A5
:1050F800DFFE061941EB050740F2B2720023A24217
:10510800AB4102DB083E47F1FF3720462946FFF74F
:1051180065FE10B10B3647F1000714F1FF3045F179
:10512800FF31FFF75BFE10B1113647F100071C2273
:10513800002330463946FCF77FF816461F46002AFA
:1051480077F1000317DB002E77F1000317DB1C2E25
:1051580077F100031ADA40F2B2700021A04271EB35
:1051680005031ADB1B4B03EB86021069A0F2B3732D
:10517800422B26D8F8BD1C3647F10007E3E7164B4B
:10518800164A40F27D11164805F066FE154B134A83
:105198004FF4BF71124805F05FFE40F2F570002130
:1051A800A04271EB050305DA0A4B03EB4602B2F99C
:1051B8008000DBE70C4B094A4FF4C271084805F040
:1051C8004BFE0A4B054A40F28911054805F044FE9A
:1051D8004DF8FFFF68DA000894DC00086CDA000874
:1051E800A4DC0008CCDC0008ECDC0008F0DC0008DB
:1051F800F8B50368002B2EDB3C2B33DC4368002B0F
:1052080037DB3B2B3CDC8368002B40DB172B45DC72
:10521800C668002E49DDD0F814C00CF26C715B4BE7
:1052280083FB0123CA17C2EBE3134FF4C87202FBD6
:105238001313002B40D01CF0030F67D1534C84FB91
:105248000124CA17C2EB6412642404FB1212002A58
:1052580033D0012231E04E4B4E4A40F21F114E48E6
:1052680005F0FAFD4D4B4B4A40F223114A4805F030
:10527800F3FD4B4B474A40F22511474805F0ECFD3A
:10528800484B444A4FF49371434805F0E5FD464BBB
:10529800404A4FF49471404805F0DEFD434B3D4AC7
:1052A80040F229113C4805F0D7FD414B394A40F2FC
:1052B8002B11394805F0D0FD01220569540014442A
:1052C800A7003C4A3A442A4492F8C42096421FDC7C
:1052D800002D24DB0B2D29DC8269002A2DDB062A10
:1052E80032DCC269002A36DB002B3BD01CF0030FEE
:1052F80040D1264880FB0130CB17C3EB60136420F4
:1053080000FB1313002B37D100212CE00022D4E737
:10531800294B204A4FF496711F4805F09DFD274BF5
:105328001C4A4FF497711C4805F096FD244B194A06
:1053380040F22F11184805F08FFD224B154A40F214
:105348003111154805F088FD1F4B124A4FF4997129
:10535800114805F081FD1D4B0E4A4FF49A710E4815
:1053680005F07AFD0121134B33F911309A4205DC1F
:105378000120F8BD0021F6E70121F4E7144B054AA6
:1053880040F23511044805F067FD00BF1F85EB5159
:105398002CDD000820DB0008A4DC00083CDD000848
:1053A80050DD000860DD000874DD000888DD0008B5
:1053B8009CDD000868DA0008B0DD0008F0DD0008B0
:1053C80000DE000814DE000828DE00083CDE0008C5
:1053D80050DE000870B588B10246034620321E68C8
:1053E8005D689C68D8680E604D608C60C86010333A
:1053F80010319342F3D11B680B6004E00846242265
:10540800002105F063FE70BD70B588B10246034601
:1054180020321E685D689C68D8680E604D608C609C
:10542800C860103310319342F3D11B680B6004E05D
:1054380008462422002105F049FE70BD2DE9F04FF1
:1054480085B0804643691E46DF17652B77F1000358
:1054580057DB4FF4C8720023B6F1640047F1FF31FF
:10546800FBF7EAFE81468A468D0045EA907584007E
:10547800001B61EB0501CB0043EA5073C200B2EB9D
:10548800090063EB0A010B0143EA10730201B61825
:105498005F414FEACA044FEAC90244EA597312EB62
:1054A800090443EB0A052B0143EA1473220112EBAA
:1054B800090243EB0A031C0144EA12741501B5EB17
:1054C800090264EB0A03104619468B0143EA90630C
:1054D8008201121A63EB0103CDE90023472E77F10D
:1054E800000380F29480462E77F1000380F29E80BC
:1054F80045240025B246BB46CDF80C80DDE900897D
:10550800C9E0A34A4FF0FF33964277EB030345DA2D
:105518004FF4C8720023B6F1640047F1FF31FBF77E
:105528008BFE81468A468D0045EA90758400001BF3
:1055380061EB0501CB0043EA5073C200B2EB0900EE
:1055480063EB0A010B0143EA10730201B6185F41CD
:105558004FEACA044FEAC90244EA597312EB090038
:1055680043EB0A010C0144EA1074050115EB09022A
:1055780044EB0A031C0144EA12741501B5EB090255
:1055880064EB0A03104619468B0143EA90638201D3
:10559800121A63EB0103CDE900239FE700230024DF
:1055A800CDE900349AE701227A4B33F91220D31758
:1055B80018EB020849EB0309013445F1000554458D
:1055C80075EB0B032CDA40F26C760027321947EBA7
:1055D800050316461F464FF4C87200233046394665
:1055E800FBF72AFE1343DED004F003020023134323
:1055F80009D16422002330463946FBF71DFE1343C8
:1056080003D10022D0E70022CEE70122CCE74624CE
:105618000025B246BB46CDF80C80DDE90089CEE70F
:10562800CDE9008956465F46DDF80C8040F26C747F
:105638000025A21945EB070314461D464FF4C8720E
:10564800002320462946FBF7F7FD13434ED006F00A
:10565800030A4FF0000B5AEA0B0340F094806422CF
:10566800002320462946FBF7E7FD134340F08D80D1
:1056780000213CE00122474B33F91220D317B8EB45
:10568800020869EB030914F1FF3445F1FF3554456D
:1056980075EB0B0323DB40F26C760027321947EBDE
:1056A800050316461F464FF4C87200233046394694
:1056B800FBF7C2FD1343DDD004F0030200231343BC
:1056C80009D16422002330463946FBF7B5FD134360
:1056D80003D10022CFE70022CDE70122CBE7CDE9B5
:1056E800008956465F46DDF80C809FE70121D8F80F
:1056F80010004A000A4493000344264A02EB43037D
:10570800B3F9DC00C117DDE900341B184C41184619
:10571800D8F80C30013BC61844EBE377B21947EBD5
:105728000703941943EB07052B0143EA147322017D
:10573800121B63EB0503104619460B0143EA10736D
:105748000201121A63EB0103DB0143EA5263D2013F
:1057580014461D46D8F808204FF4616303FB02F392
:10576800E01845EBE371D8F80430C3EB03139A0053
:10577800841841EBE275D8F80030E01845EBE37186
:1057880005B0BDE8F08F0021B1E70121AFE700BF08
:10579800D4FEFFFF68DA00082DE9F04192B0804698
:1057A8004669224901F5867201F59871FFF76CFB8D
:1057B80070BB06F26C76F7176C4645460FCD0FC4E2
:1057C8000FCD0FC42B68236030463946FFF782FCA3
:1057D800A0F26C70059009A96846FFF7FBFD09A8BF
:1057E80005F056FD04460D46414609A8FFF70CFE94
:1057F8000E9A02F26C72D31730463946FFF786FBD1
:10580800261845EB01073046394612B0BDE8F0814D
:1058180009A94046FFF7DEFD09A805F039FD06464F
:105828000F46414609A8FFF7EFFDECE768DA0008E4
:105838002DE9F04F87B0D0E90045002900F0A48099
:105848008A4600230B623C22002320462946FBF7A8
:10585800F3FC164605923C22002320462946FBF716
:10586800EBFC3C220023FBF7E7FC904693464FF401
:105878006162002320462946FBF7DEFC182200233C
:10588800FBF7DAFC17460192C54A00232046294651
:10589800FBF7D2FC04460D46002E7CDBBBF1000F63
:1058A8007FDB019B002BC0F2818007220023201D93
:1058B80045F10001FBF7C0FC0492002A7DDB43F2AE
:1058C80036620023A242AB417ADAB64A4FF0FF3380
:1058D800A4185D414FF06C084FF00009002C75F1D9
:1058E8000003C0F2F880B04A002320462946FBF79F
:1058F800A3FC50EA010323D0AC4A464202FB0166EE
:10590800A0FB02233344A4185D41021841EB0103B4
:10591800861841EB0307CDE90267FE00029B46EAC1
:105928005376DF0002970396DDE902238018594178
:105938000B0143EA1073020118EB020849EB030953
:1059480040F26C76002716EB080247EB090316466F
:105958001F464FF4C872002330463946FBF76CFCEB
:10596800134332D008F003020023134332D16422D8
:10597800002330463946FBF75FFC13432FD1002341
:10598800194646464F4630E0894B8A4A40F2522132
:10599800894805F061FA08F1FF3B06F13C030593DD
:1059A8007CE77B1E01930BF13C0B7AE714F1FF3483
:1059B80045F1FF351833019377E7D31D04937EE74C
:1059C8004FF046084FF0000988E70123194646467C
:1059D8004F460AE00023194646464F4605E0012394
:1059E800194646464F4600E00121744A32F9112013
:1059F800D317944275EB030028DBA41A65EB030563
:105A080030463946013647F1000740F26D720023EF
:105A180080185941804689464FF4C8720023FBF725
:105A28000BFC1343E0D006F003020023134309D113
:105A38006422002340464946FBF7FEFB134303D18B
:105A48000021D2E70021D0E70121CEE70B46B0467E
:105A5800B946002203E0241A65EB0105013258001B
:105A68001844860055493144114491F8C400002176
:105A7800844275EB0106EEDACAF814804046C11775
:105A8800494508BFC04540F0EA80611CCAF80C10BF
:105A980059000B4499001144484B03EB4101B1F9FB
:105AA800DC301C44CAF81C40059BCAF80030CAF810
:105AB80004B0019BCAF80830CAF81020049BCAF841
:105AC80018305046FFF794FB002800F0CF8050466E
